:020000040800F2
:1000000000060020290400082B0400082B04000827
:100010002B0400082B0400082B0400082B04000804
:100020002B0400082B0400082B040008695A000860
:100030002B0400082B0400082B0400082B040008E4
:100040002B0400082B0400082B0400082B040008D4
:100050002B0400082B0400084D7200087972000878
:10006000A5720008D1720008FD720008013A00086C
:10007000293A0008553A0008813A0008AD3A0008CC
:10008000D53A0008013B00082B0400082B040008A7
:100090002B0400082B0400082B0400082973000817
:1000A0002B0400082B0400082B0400082B04000874
:1000B0002B0400082B0400082B0400082B04000864
:1000C0002B0400082B0400082B0400082B04000854
:1000D0002B0400082B0400082B04000801740008FE
:1000E0008D7300082B0400082B0400082B04000863
:1000F0002B0400082B0400082B0400082D3B0008EB
:100100002B0400082B0400083D7400082B04000891
:100110002B040008157400082B0400082B040008A9
:10012000593B0008813B0008AD3B0008D93B000863
:10013000053C00082B0400082B0400082B040008D1
:100140002B0400082B0400082B0400082B040008D3
:100150002D3C0008593C0008853C00082B04000891
:100160002B0400082B0400082B0400082B040008B3
:100170002B040008556600082B0400082B04000817
:100180002B0400082B040008297400082B04000825
:100190002B0400082B0400082B0400082B04000883
:1001A0002B0400082B0400082B0400082B04000873
:1001B0002B0400082B0400082B0400082B04000863
:1001C0002B0400082B0400082B0400082B04000853
:1001D0002B040008416600082B0400082B040008CB
:1001E0002B0400082B0400082B0400082B04000833
:1001F0002B0400082B0400082B0400082B04000823
:100200002B0400082B0400082B0400082B04000812
:100210002B0400082B0400082B0400082B04000802
:100220002B0400082B0400082B0400082B040008F2
:100230002B0400082B0400082B0400082B040008E2
:100240002B0400082B0400082B0400082B040008D2
:100250002B0400082B0400082B0400082B040008C2
:100260002B0400082B0400082B0400082B040008B2
:100270002B0400082B0400082B0400082B040008A2
:100280002B0400082B0400082B0400082B04000892
:100290002B0400082B0400082B0400082B04000882
:1002A0002B0400082B0400082B0400082B04000872
:1002B0002B0400082B0400082B0400082B04000862
:1002C0002B0400082B0400082B0400082B04000852
:1002D0002B0400082B0400082B0400082B04000842
:1002E0004ECF4EA5A6B6F7295896DBA5B8CECFFCC3
:1002F0008C0772719EFAB24D4227090759712B641F
:10030000034AA19F695D84F25FC8DD56AC4821496C
:1003100082B8C4A2F08853678D159175B481B45C1E
:10032000CF332D752821A822B27347917F7A17D039
:100330003EFC84A9A4766B7358E33E8DE330D37EF4
:100340008363D3A0A8564A001B2909EE5F1C68FFEF
:10035000422887642C9A29A42ACCDAAF3F73131061
:1003600098D9A6E355421ADE000000000000000004
:10037000000000000000000000000000000000007D
:10038000000000000000000000000000000000006D
:10039000000000000000000000000000000000005D
:1003A000000000000000000000000000000000004D
:1003B000000000000000000000000000000000003D
:1003C000000000000000000000000000000000002D
:1003D000000000000000000000000000000000001D
:1003E000000000000000000000000000000000000D
:1003F00000000000000000000000000000000000FD
:1004000000000000000000000000000000000000EC
:1004100000000000000000000000000000000000DC
:10042000000000000000000002E000F000F8FEE71D
:1004300072B6374880F30888364880F30988364812
:100440003649086040F20000CCF200004EF63471EC
:10045000CEF200010860BFF34F8FBFF36F8F40F201
:100460000000C0F2F0004EF68851CEF200010860A4
:10047000BFF34F8FBFF36F8F4FF00000E1EE100A14
:100480004EF63C71CEF200010860062080F314881D
:10049000BFF36F8F05F04AFB06F092FC4FF055302A
:1004A0001F491B4A91423CBF41F8040BFAE71D4922
:1004B000184A91423CBF41F8040BFAE71A491B4A1B
:1004C0001B4B9A423EBF51F8040B42F8040BF8E76D
:1004D00000201849184A91423CBF41F8040BFAE742
:1004E00005F062FB06F0F0FC144C154DAC4203DA4B
:1004F00054F8041B8847F9E700F042F8114C124DFC
:10050000AC4203DA54F8041B8847F9E705F04ABB0C
:1005100000060020002200200000000808ED00E096
:100520000000002000060020B87F00080022002004
:100530006C22002070220020EC510020E002000814
:10054000E0020008E0020008E00200082DE9F04F98
:100550002DED108AC1F80CD0D0F80CD0BDEC108A6B
:10056000BDE8F08F002383F311882846A0470020C0
:1005700004F02EFDFEE704F0B9FC00DFFEE700000A
:1005800038B500F059FC00F01BFE05F02DFA0546C9
:1005900005F060FA044600BB124B9D421FD00133A8
:1005A0009D4241F2883512BF04460025012400F027
:1005B00019FF20B10025032000F066F82C4600202A
:1005C00005F01CFA0CB100F075F800F099FD284612
:1005D00000F02AF900F06EF8F9E70025E7E7054694
:1005E000E5E700BF010007B008B500F0F1FBA0F19E
:1005F00020035842584108BD07B541F212030221B9
:1006000001A8ADF8043000F001FC03B05DF804FB74
:1006100038B5302383F31188174803680BB104F011
:10062000A3FD0023154A4FF47A71134804F092FD9C
:10063000002383F31188124C236813B12368013B14
:100640002360636813B16368013B63600D4D2B78D1
:1006500033B963687BB9022000F0B4FC32236360D5
:100660002B78032B07D163682BB9022000F0AAFC7A
:100670004FF47A73636038BD7022002011060008C1
:100680009023002088220020084B187003280CD8E3
:10069000DFE800F008050208022000F085BC022017
:1006A00000F072BC024B00225A6070478822002082
:1006B00090230020F8B500F095FE30B1524B032294
:1006C0001A700022514B5A60F8BD514B514A1C46DA
:1006D00019680131F8D004339342F9D162684E4B66
:1006E0009A42F1D94D4B9B6803F1006303F5003347
:1006F0009A42E9D2002000F0B9FB0220FFF7C4FFC4
:10070000474B0021D3F8E820C3F8E810D3F81021B4
:10071000C3F81011D3F81021D3F8EC20C3F8EC1073
:10072000D3F81421C3F81411D3F81421D3F8F0200E
:10073000C3F8F010D3F81821C3F81811D3F8182112
:10074000D3F8802042F00062C3F88020D3F88020E4
:1007500022F00062C3F88020D3F88020D3F88020F4
:1007600042F00072C3F88020D3F8802022F000729B
:10077000C3F88020D3F8803072B64FF0E023C3F87E
:10078000084DD4E90004BFF34F8FBFF36F8F254AA4
:10079000C2F88410BFF34F8F536923F48033536141
:1007A000BFF34F8FD2F8803043F6E076C3F3C9052C
:1007B000C3F34E335B0103EA060C29464CEA81770A
:1007C0000139C2F87472F9D2203B13F1200FF2D133
:1007D000BFF34F8FBFF36F8FBFF34F8FBFF36F8F99
:1007E000536923F4003353610023C2F85032BFF33E
:1007F0004F8FBFF36F8F302383F31188854680F3CB
:100800000888204760E700BF88220020902300204E
:100810000000020820000208FFFF0108002200205B
:100820000044025800ED00E02DE9F04F93B0B44BC6
:100830002022FF2100900AA89D6800F00BFCB14A1D
:100840001378A3B90121B04811700360302383F3FA
:10085000118803680BB104F087FC0023AB4A4FF406
:100860007A71A94804F076FC002383F31188009B79
:1008700013B1A74B009A1A60A64A1378032B03D032
:1008800000231370A24A53604FF0000A009CD34625
:100890005646D146012000F087FB24B19C4B1B68D3
:1008A000002B00F02682002000F092FA0390039BB8
:1008B000002BF2DB012000F067FB039B213B1F2B89
:1008C000E8D801A252F823F049090008710900088C
:1008D000050A000895080008950800089508000812
:1008E000970A0008670C0008810B0008E30B00085A
:1008F0000B0C0008310C000895080008430C000898
:1009000095080008B50C0008E909000895080008DA
:10091000F90C000855090008E909000895080008C5
:10092000E30B0008950800089508000895080008E2
:100930009508000895080008950800089508000823
:1009400095080008050A00080220FFF74DFE002860
:1009500040F0F981009B022105A8BAF1000F08BF01
:100960001C4641F21233ADF8143000F04FFA91E713
:100970004FF47A7000F02CFA071EEBDB0220FFF731
:1009800033FE0028E6D0013F052F00F2DE81DFE8CC
:1009900007F0030A0D1013360523042105A805935B
:1009A00000F034FA17E004215548F9E704215A48C9
:1009B000F6E704215948F3E74FF01C08404608F1D8
:1009C000040800F055FA0421059005A800F01EFA6D
:1009D000B8F12C0FF2D101204FF0000900FA07F70F
:1009E00047EA0B0B5FFA8BFB00F080FB26B10BF0A4
:1009F0000B030B2B08BF0024FFF7FEFD4AE7042181
:100A00004748CDE7002EA5D00BF00B030B2BA1D14F
:100A10000220FFF7E9FD074600289BD001200026B1
:100A200000F024FA0220FFF72FFE1FFA86F8404656
:100A300000F02CFA0446B0B1039940460136A1F10A
:100A400040025142514100F031FA0028EDD1BA463E
:100A5000044641F21213022105A83E46ADF81430B7
:100A600000F0D4F916E725460120FFF70DFE244BD0
:100A70009B68AB4207D9284600F0FAF9013040F0F4
:100A800067810435F3E70025224BBA463E461D70C8
:100A90001F4B5D60A8E7002E3FF45CAF0BF00B032B
:100AA0000B2B7FF457AF0220FFF7EEFD322000F052
:100AB0008FF9B0F10008FFF64DAF18F003077FF48F
:100AC00049AF0F4A08EB0503926893423FF642AFE5
:100AD000B8F5807F3FF73EAF124BB845019323DD59
:100AE0004FF47A7000F074F90390039A002AFFF62D
:100AF00031AF039A0137019B03F8012BEDE700BFEB
:100B0000002200208C230020702200201106000803
:100B100090230020882200200422002008220020A8
:100B20000C2200208C220020C820FFF75DFD074624
:100B300000283FF40FAF1F2D11D8C5F120020AABDA
:100B400025F0030084494245184428BF42460192DB
:100B500000F05AFA019AFF217F4800F07BFA4FEA31
:100B6000A803C8F387027C492846019300F07AFA6B
:100B7000064600283FF46DAF019B05EB830533E784
:100B80000220FFF731FD00283FF4E4AE00F0ACF99D
:100B900000283FF4DFAE0027B846704B9B68BB428D
:100BA00018D91F2F11D80A9B01330ED027F0030349
:100BB00012AA134453F8203C05934046042205A989
:100BC000043700F095FB8046E7E7384600F050F91F
:100BD0000590F2E7CDF81480042105A800F016F97D
:100BE00002E70023642104A8049300F005F900281B
:100BF0007FF4B0AE0220FFF7F7FC00283FF4AAAE66
:100C0000049800F067F90590E6E70023642104A842
:100C1000049300F0F1F800287FF49CAE0220FFF767
:100C2000E3FC00283FF496AE049800F055F9EAE79B
:100C30000220FFF7D9FC00283FF48CAE00F064F9E5
:100C4000E1E70220FFF7D0FC00283FF483AE05A9BE
:100C5000142000F05FF907460421049004A800F076
:100C6000D5F83946B9E7322000F0B2F8071EFFF692
:100C700071AEBB077FF46EAE384A07EB090392688A
:100C800093423FF667AE0220FFF7AEFC00283FF428
:100C900061AE27F003074F44B9453FF4A5AE48467F
:100CA00009F1040900F0E4F80421059005A800F01A
:100CB000ADF8F1E74FF47A70FFF796FC00283FF4A7
:100CC00049AE00F011F9002844D00A9B01330BD043
:100CD00008220AA9002000F0C5F900283AD02022F5
:100CE000FF210AA800F0B6F9FFF786FC1C4804F0C3
:100CF00075F913B0BDE8F08F002E3FF42BAE0BF06A
:100D00000B030B2B7FF426AE0023642105A805936B
:100D100000F072F8074600287FF41CAE0220FFF7AF
:100D200063FC804600283FF415AEFFF765FC41F2F6
:100D3000883004F053F9059800F020FA46463C4606
:100D400000F0D4F9A6E506464EE64FF0000901E6AC
:100D5000BA467EE637467CE68C2200200022002040
:100D6000A08601002DE9F84F4FF47A7306460D4630
:100D7000002402FB03F7DFF85080DFF8509098F969
:100D800000305FFA84FA5A1C01D0A34210D159F8FE
:100D900024002A4631460368D3F820B03B46D847A2
:100DA000854205D1074B012083F800A0BDE8F88FEC
:100DB0000134042CE3D14FF4FA7004F00FF9002051
:100DC000F4E700BFDC2300201022002014220020C2
:100DD000002307B5024601210DF107008DF8073009
:100DE000FFF7C0FF20B19DF8070003B05DF804FBDA
:100DF0004FF0FF30F9E700000A46042108B5FFF77D
:100E0000B1FF80F00100C0B2404208BD074B0A4666
:100E100030B41978064B53F8214001462368204628
:100E2000DD69044BAC4630BC604700BFDC230020CA
:100E300014220020A086010070B50A4E00240A4D3D
:100E400004F0ECFB308028683388834208D904F032
:100E5000E1FB2B6804440133B4F5003F2B60F2D36F
:100E600070BD00BFDE2300209823002004F0B0BC3A
:100E700000F1006000F500300068704700F100608C
:100E8000920000F5003004F025BC0000054B1A6804
:100E9000054B1B889B1A834202D9104404F0BABB4D
:100EA0000020704798230020DE23002038B5044638
:100EB000074D29B128682044BDE8384004F0C2BB82
:100EC0002868204404F0ACFB0028F3D038BD00BFF4
:100ED000982300200020704700F1FF5000F58F108C
:100EE000D0F8000870470000064991F8243033B16B
:100EF00000230822086A81F82430FFF7BFBF0120D1
:100F0000704700BF9C230020014B1868704700BF4A
:100F10000010005C194B01380322084470B51D68AD
:100F2000174BC5F30B042D0C1E88A6420BD15C6831
:100F30000A46013C824213460FD214F9016F4EB1AA
:100F400002F8016BF6E7013A03F10803ECD18142A4
:100F50000B4602D22C2203F8012B0424094A1688DE
:100F6000AE4204D1984284BF967803F8016B013CED
:100F700002F10402F3D1581A70BD00BF0010005CEA
:100F80002422002094750008022804D1054B4FF458
:100F900000129A6170470128FCD1024B4FF40022E5
:100FA000F7E700BF00100258022803D1044B2022AB
:100FB0009A6170470128FCD1014B0822F8E700BF75
:100FC00000100258022805D1064A536983F0200315
:100FD000536170470128FCD1024A536983F008032A
:100FE000F6E700BF0010025870B504464FF47A7659
:100FF0004CB1412C254628BF412506FB05F0641B5A
:1010000003F0ECFFF4E770BD002310B5934203D06A
:10101000CC5CC4540133F9E710BD0000013810B5B1
:1010200010F9013F3BB191F900409C4203D11AB144
:101030000131013AF4E71AB191F90020981A10BD74
:101040001046FCE703460246D01A12F9011B00299C
:10105000FAD1704702440346934202D003F8011BC1
:10106000FAE770472DE9F8431F4D144607468846B6
:1010700095F8242052BBDFF870909CB395F824308B
:101080002BB92022FF2148462F62FFF7E3FF95F896
:1010900024004146C0F1080205EB8000A24228BFAF
:1010A0002246D6B29200FFF7AFFF95F82430A41B7A
:1010B00017441E449044E4B2F6B2082E85F824602A
:1010C000DBD1FFF711FF0028D7D108E02B6A03EB33
:1010D00082038342CFD0FFF707FF0028CBD1002047
:1010E000BDE8F8830120FBE79C230020024B1A781F
:1010F000024B1A70704700BFDC2300201022002032
:10110000F8B5194C194803F099FA2146174803F02D
:10111000C1FA24684FF47A70154ED4F89020154D1A
:10112000D2F80438114F43F00203C2F80438FFF735
:101130005BFF2046104903F0BBFBD4F89020042449
:10114000D2F8043823F00203C2F804384FF4E13334
:10115000336055F8040BB84202D0314603F0CCF9A5
:10116000013CF6D1F8BD00BF487D000818340020CE
:10117000C423002014220020507D00080C4B70B5C1
:101180000C4D04461E780C4B55F826209A420DD083
:101190000A4B002118221846FFF75CFF0460014645
:1011A00055F82600BDE8704003F0A6B970BD00BF39
:1011B000DC2300201422002018340020C423002047
:1011C0002DE9F04771B6464B01201D68454BB3F839
:1011D000008000231A46194602F0FCFD04468020D8
:1011E00004F094FB0746002862D0002C60D03E4EED
:1011F000ADB24FF0800A7369284643F0C063736153
:10120000D6F8143143F0C063C6F8143104F002FA82
:1012100005EB080200FB05F34FF4D06C50434FF090
:101220003D0E984233D93269520144D4D6F8102188
:10123000510140D4216803F100628A602268D760BE
:101240002268C2F804A02268C2F800C0D4F8009056
:10125000D9F8002042F00102C9F80020D4F800902B
:10126000D9F8002022F01E02C9F80020D4F800901E
:10127000D9F80020D207FBD494F80C908033616831
:101280000EFA09F20A60CCE7002004F0A1FA204629
:1012900002F0E0FD384604F06DFB134B5A6942F052
:1012A000C0625A61D3F8142142F0C062C3F814211D
:1012B00061B6BDE8F0870D4B9A6A42F400729A62FB
:1012C0009A6A42F400429A6261B60026012004F054
:1012D0007FFAB045D8D9A819013604F0B3F9F8E778
:1012E00098230020DE2300200020005200ED00E0C3
:1012F00030B50A44084D91420DD011F8013B5840D9
:10130000082340F30004013B2C4013F0FF0384EA60
:101310005000F6D1EFE730BD2083B8ED30B50024A2
:1013200089B00B4D1C22214601A80094FFF792FEC4
:1013300020226946281906F0DDF830B92034B4F5CA
:10134000A07FF5D1012009B030BD0020FBE700BF30
:10135000E80200082DE9F047D8B004460D461646CD
:101360001F46FFF7DBFF90BBA369482B31D1082252
:1013700004F11C01184806F0BDF850BB8246DFF8A6
:101380005C80DFF85C904FF4B07200216846FFF794
:1013900061FE08EB0A0204F12401684602F0F4F948
:1013A0002A464946684602F0F5F968463A4631460B
:1013B00002F0F0F9684602F0EFF928B10AF1200ACC
:1013C000BAF5A07FDFD1122058B0BDE8F087002029
:1013D000FAE71120F8E700BFB8750008E802000836
:1013E00000000208404A2DE9F34110686B4651683D
:1013F0006A4603C308233D493D4806F08BF804467E
:10140000002836D10A24FFF789FF002867D0394A1F
:101410006B46106851686A4603C30823364934484E
:1014200006F078F80546002859D00369B3F5F01F97
:1014300055D8418B42F24972914250D12F4A024411
:1014400002F110018B424AD3103B294900209E1A19
:10145000FFF74EFF05F11801074632460020FFF75F
:1014600047FFAB689F423AD1EB68984208BF00241F
:1014700035E00369B3F5F01F01D90B24C3E7B0F8D9
:10148000661042F24972914201D00C24BBE71B4E18
:10149000064406F15C02934201D21024B3E75C3BA0
:1014A00000F16407324612499D1B0020FFF720FF20
:1014B000394680462A460020FFF71AFFA368984560
:1014C00001D00D249FE7E3689842FAD120462B46CD
:1014D0003A463146FFF73EFF0446002893D12046A6
:1014E00002B0BDE8F08100BFA475000890FF1D00A8
:1014F00000000208AD750008DCFF1D000800FEF7C3
:10150000837842781B04007843EA0223184370472B
:101510000068704708B50246FFF7FAFF0346101D42
:10152000FFF7F6FF0146184608BD00000B0A0170E0
:1015300043700B0C090E8370C170704708B501EB46
:101540008202031F08460431FFF7E2FF43F8040F4D
:101550009142F7D108BD000010B500EB82020C1FCC
:1015600054F8041FFFF7E2FF04309042F8D110BD99
:101570002DE9F04188460546FFF7CCFF06460C46AC
:101580004046FFF7C7FF464005F108004C40FFF713
:10159000C1FF07460D4608F10800FFF7BBFF784082
:1015A000694030432143BDE8F0810000F8B50646AC
:1015B0000F46FFF7DDFF05460C4606F1100007F168
:1015C0001001FFF7D5FF28432143F8BD2DE9F04F67
:1015D0000368B7B0384CC1F1000A1A934368374921
:1015E0001B938368364D1C93C368364F1D93036964
:1015F000DFF8F8B01E9343698AEA0B0B324E1F9353
:101600008369DFF8ECE02093C369DFF8E8C0219339
:10161000036A2293436A2393D0E9102362402B4C40
:1016200005922B4A53400693836A2493C36A2593F9
:10163000D0E9122362400D92264A5340264A0E9367
:10164000036B00922693436B279381EAEA732099F8
:101650001793836B18912893C36B289A299300F1F1
:1016600050031192299A21991292269A1991079260
:10167000279A1E990892249A159103921F99259AE8
:1016800016910492DDE922421C990F911D99109147
:101690001A9909911B990A911049CDE9015101F15B
:1016A0004F7101F5D341583113910D4914910D49F2
:1016B000CDE90B710C4F1FE0D182E6ADABD9831F92
:1016C00079217E132BF894FE85AE67BB1F6C3E2BF1
:1016D0007F520E518C68059B587A000819CDE05B4B
:1016E0003AF54FA572F36E3C3BA7CA846BBD41FB34
:1016F00008C9BCF367E6096A0099097803EBC105DC
:1017000053F831106D68611842EB0508099D4919BD
:101710000A9D45EB0808059D81EA0509069D88EAB2
:10172000050A1AEB0E0E4CEB090C8EEA04048CEA47
:101730000202250E45EA0225120E42EA0422009C0E
:101740006478099203EBC40253F8344052680919D3
:1017500048EB02084A190592099A48EB02020692E0
:10176000059A82EA0A0A069A4FEA1A4182EA0909A8
:1017700041EA094209994FEA1949349249EA0A4271
:101780003592349A1EEB02022A92359A4CEB0202F1
:101790002B922A9A55402B9A51400A46490041EA19
:1017A000D5716D00339145EAD2723292009A9278E7
:1017B00003EBC20153F832204968039C0D9DA21827
:1017C000049C44EB010E0F9912EB010A1099009A48
:1017D00041EB0E0E0E9985EA0A058EEA010803997F
:1017E00018EB070746EB050687EA010C74404FEA41
:1017F0001C6141EA0421240E44EA0C2492F803C03F
:1018000003EBCC0953F83CC0D9F804901AEB0C0256
:101810004EEB090E52180D924EEB04020E920D9AE9
:1018200082EA08080E9A55404FEA184242EA0542F9
:101830002D0C309245EA08423192309ABA182C9217
:10184000319A46EB02022D922C9A51402D9A544027
:10185000620042EAD1724900099241EAD4720492CC
:10186000009A127903EBC20153F832204D680799B0
:101870008A18089941EB050515995218169941EBFC
:101880000505179982EA0B04039285EA010A0B9970
:10189000009A1AEB01060C9992F805E041EB040B53
:1018A000079953F83E8086EA010C0899039A8BEA5F
:1018B00001074FEA1C6112EB080241EA07214FEAD7
:1018C000176747EA0C2703EBCE0CDCF8049045EBD6
:1018D00009055218159245EB07021692159A82EAED
:1018E0000A0A169A4FEA1A49544049EA0442240C5B
:1018F0002E9244EA0A42119C2F922E9AB6182F9AE1
:101900004BEB020B71408BEA07077A0042EAD17277
:101910004900089241EAD7720792009A917903EB45
:10192000C10253F8311052686118129C44EB02084E
:10193000189A8918199A42EB0808019A029C4A40A1
:10194000129F88EA040E139C1EEB0405149C44EBC2
:101950000209119C6C4089EA070C270E47EA0C2704
:101960004FEA1C6C4CEA042C009CE47903EBC40A9B
:1019700053F83440DAF804A00919059C48EB0A082A
:10198000C919179148EB0C011891179981EA0E0EAD
:1019900018994FEA1E4A4A404AEA024A120C15EBCD
:1019A0000A0542EA0E4E87EA050749EB0E0989EA65
:1019B0000C0C4FEA4C0848EAD7727F00129247EAB3
:1019C000DC721192009A117A03EBC10253F83110C4
:1019D00052686118069C44EB0208049A8918099A17
:1019E00048EB020881EA0A0A049A88EA0E0E1EEB06
:1019F00006064BEB0A0B86EA0204099A270E8BEACD
:101A0000020247EA02274FEA126C009A527A4CEA25
:101A1000042C03EBC20453F832206468891848EBA5
:101A20000408CA19099248EB0C020A92099A8EEA34
:101A3000020E0A9A8AEA020A4FEA1E4242EA0A4261
:101A40004FEA1A4A01924AEA0E420292019A921908
:101A50000B92029A42EB0B020C920B9A57400C9A93
:101A60008CEA020C4FEA4C0444EAD772359C7F00A2
:101A7000049247EADC720392009A927A03EBC20165
:101A800053F832204E680D998A180E9941EB0606DC
:101A9000079912EB01080899009A46EB0106349960
:101AA00086EA040A88EA0101079C1AEB050549EB5E
:101AB000010985EA040C089C89EA04074FEA1C64C2
:101AC00044EA07243F0E47EA0C2792F80BC003EBC9
:101AD000CC0E53F83CC0DEF804E018EB0C0246EBE9
:101AE0000E0612190F9246EB070210920F9A8AEA1D
:101AF000020A109A51404FEA1A4242EA0142090C86
:101B0000059241EA0A420692059A52191392069AE0
:101B100042EB09021492139A5440149A57407A00E7
:101B200042EAD4726400089244EAD7720792009A9B
:101B3000127B03EBC20153F832204D6815998A18C5
:101B4000169941EB0505119912EB010A1299009AB9
:101B500045EB010530998AEA0106319985EA0107CA
:101B60002A9911EB070E2B9941EB060C11998EEA7D
:101B7000010412998CEA0108210E41EA08214FEA7A
:101B8000186848EA042492F80D8003EBC80953F85A
:101B90003880D9F804901AEB080245EB0905521871
:101BA000159245EB04021692159A5740169A564024
:101BB0003A0C42EA0642360C0D9246EA07420E9271
:101BC0000D9A12EB0E0E0E9A42EB0C0C81EA0E01EE
:101BD00084EA0C044FEA440A4AEAD172490012929C
:101BE00041EAD472179C1192009A917B03EBC102D7
:101BF00053F8311052686118189C44EB0208329A6D
:101C0000009C8918339AE47B48EB02082E9A81EAFB
:101C100002092F9A88EA020A2C9A12EB0A072D9AD7
:101C200042EB0906329A87EA020B339A4FEA1B65A8
:101C3000724045EA0225120E42EA0B2203EBC40B66
:101C400053F83440DBF804B0091948EB0B08491984
:101C5000189148EB0201199118998AEA010A199919
:101C600089EA01094FEA1A4141EA094B4FEA194949
:101C70001BEB070749EA0A4185EA070541EB06061F
:101C8000179182EA06014A0042EAD5726D0045EAE0
:101C9000D174009910310091009D3949A9427FF417
:101CA0002BAD099B0C9D83EA0E010A9B83EA0C086D
:101CB0001A9B59401B9B88EA0303C0E900130F9B42
:101CC00013997B401F46109B73401E461C9B5F4030
:101CD0001D9B5E40159BC0E902760B9E5E40169BE5
:101CE0005D401E9B5E401F9B5D40189BC0E90465E4
:101CF0005940199D149B83EA0508209B5940219B5C
:101D000088EA0303C0E90613059B83EA0409069BDE
:101D100083EA020A229B89EA0304239B8AEA0302DC
:101D2000C0E90842039B0D9A049C83EA020C0E9BB7
:101D3000259A5C40249B12998CEA03035440179A1D
:101D4000C0E90A34079B83EA0B04089B83EA020A72
:101D5000269B5C40279B8AEA0302119BC0E90C4248
:101D6000019A5A40029B83EA010A289B5A40299B08
:101D70008AEA0303C0E90E2337B0BDE8F08F00BF45
:101D8000187B000870B505460E46144622B980221D
:101D900021465030FFF75EF924F00700E40004F01C
:101DA00038042844A4F12003C4F1200206FA04F404
:101DB00006FA03F326FA02F21343D0E9146234431D
:101DC0001343C0E9144370BD28220021FFF742B934
:101DD00001232422002140F8043BFFF73BB9000017
:101DE000002351F8232040F8232001330A2BF8D197
:101DF00070470000002351F82320524240F823206E
:101E000001330A2BF7D17047002330B551F8234036
:101E100052F823502C4440F8234001330A2BF5D1CB
:101E200030BD0000002330B551F8234052F8235054
:101E3000641B40F8234001330A2BF5D130BD00006C
:101E400030B55242041F0439243054F8045F51F86D
:101E5000043F844283EA050303EA020383EA05039D
:101E60002360F2D130BD00002DE9F04F8BB0044665
:101E700008460025FFF74CFB0190081DFFF740FBCB
:101E80008301C81D0093FFF73BFB4FEA401A01F1A5
:101E90000A00FFF735FB4FEAC00B01F10D00FFF719
:101EA0002FFB860001F11000FFF732FB814601F1A4
:101EB0001400FFF725FB4FEAC01801F11700FFF7E8
:101EC0001FFB470101F11A00FFF71AFB030101F1A3
:101ED0001D000493FFF714FB019A6C4B03EA800387
:101EE00012F1007005934FEA906045F1000340EA5B
:101EF00083109B1681064FEA901C521A06926CEBD7
:101F00004C020792009A101843F1000216F1007C6F
:101F100045F100014FEA9C6C4CEA811C89164FEA9E
:101F20008C634FEA9C15F31A65EB450619EB0C0917
:101F300041F1000110F1807C42F100054FEA5C6C38
:101F40004CEAC51C6D161AEB0C0AA0EB4C6245F16D
:101F5000000519F1807008924FEA506041F10002CB
:101F600040EAC2105216A9EB4061099118EB00013A
:101F7000009142F100021AF1007145F10005890E4D
:101F800041EA8511AD161BEB01004FF0130B0190D8
:101F900045F10005009810F1007042F10002800E3A
:101FA00040EA821092163F18029742F10002019F08
:101FB00017F1807E45F100054FEA5E6E4EEAC51EC0
:101FC000029D13EB0E0346F1000615F18077049D88
:101FD00042F100027F0E039347EAC2175216ED1931
:101FE00042F1000213F1007C049546F100064FEA2D
:101FF0009C6C069B4CEA861C15F10076059D42F10F
:102000000002B60E46EA8216921615EB060942F158
:10201000000219F1807542F100026D0E45EAC21509
:10202000A5FB0B2BA9EB4565D218079B4BEB030BCC
:1020300012F10078089B4BF1000B4FEA986848EAD0
:102040008B18A2EB8862226013EB08026260AAEB95
:102050008162A260019B6562A3EB4E61039BA3EBCF
:102060008C63E1602361099B13EB0C036361009BAC
:10207000A3EB8063A361029BA3EB4760049BA3EBEC
:102080008666E06126620BB0BDE8F08FFCFFFF01C1
:102090002DE9F04F0D688BB00C694FF0130B82FBEC
:1020A000055C82FB044615F100774CF1000ABF0E77
:1020B00047EA8A174FEAAA680AF07C4ABB064AEA4E
:1020C000971AEB1A4D6806936CEB0A0314F1007C27
:1020D000C2FB0578079346F1000E4FEA9C6C4D69F0
:1020E0004CEA8E1C4FEAAE6A0EF07C4E4FEA8C63CF
:1020F0004EEA9C1EC2FB05CAE41A66EB0E0E17F1EF
:10210000807548F100086D0E45EAC8154FEA68630E
:10211000A7EB45668F6808961CF18076C2FB0753D3
:102120004AF1000A760E15F1007946EACA1643F123
:1021300000034FEA9969ACEB466749EA83190997AE
:102140004FEA6A6A8F699B16A5EB8965C2FB076A2D
:10215000CF6801964E46C2FB07630296019ECF6987
:1021600016F1007C4AF1000A4FEA9C6C4CEA8A1C8A
:102170004FEAAA6A6646C2FB076A0396029E16F1F8
:10218000807843F100034FEA586848EAC31814EB1B
:1021900008044EEB6366039B13F180770B6A496A70
:1021A0004AF1000A7F0E856047EACA174FEA6A6A59
:1021B000BE46C2FB03EACDF810E014F1007E46F102
:1021C00000034FEA9E6E4EEA831E049B13F10076D5
:1021D000A4EB8E644AF10003B60E46EA83169B1602
:1021E000B246C2FB01A31AF18071CDF814A043F1ED
:1021F0000003490E41EAC3115B16A1FB0B2A0BFB3E
:1022000003AA069BD218079B4AEB030A12F100733C
:102210004AF1000A9B0E43EA8A13A2EB8362026032
:10222000089AD3184360029BA3EB4863C360046120
:10223000099B13EB0E034361019BA3EB8C6383614A
:10224000039BA3EB4767049BA3EB8666059BC761D3
:10225000A3EB4161066241620BB0BDE8F08F000064
:102260002DE9F04FA5B04FF0130E8146D1E9005390
:10227000D2E9008408938B680EFB04F00193CB68CD
:102280000993D1E904C30A93D1E906730B93D1E909
:1022900008630C9393680293D368049313690693BD
:1022A00053690D9393690F93D3691693136A189327
:1022B000536A1993089B5B001093099B5B00119371
:1022C0000A9B5B0012930B9B5B0013930C9B5B00C0
:1022D0001493029B0EFB03F31A93049B0EFB03FB68
:1022E000069B0EFB03F317930D9B0EFB03F3159355
:1022F0000F9B0EFB03F30E93169B0EFB03F307934A
:10230000189B0EFB03F30593199B0EFB03F303933A
:10231000039A109B83FB021A019B1A46059BC5FB7F
:10232000081AC2FB031A119B1A46079BC2FB031A29
:102330000E9BCCFB031A129B1A46159BC2FB031A79
:10234000179B039AC7FB031A139BC3FB0B1A1A9B19
:10235000C6FB031A149BC3FB001A089B1B9188FB46
:1023600003300199C5FB0430C2FB013005990A46D0
:102370000999C2FB01300799C1FB0C300E990A463E
:102380000A99C2FB01301599C1FB073017990A461B
:102390000B99C2FB01301A99CBFB063002460C9810
:1023A000C1FB00321A93109B029983FB04301C92EC
:1023B000C5FB01300199039AC8FB01301199C2FB9A
:1023C00001300599C1FB0C3007990A461299C2FBEE
:1023D00001300E99C1FB073015990A461399C2FBCB
:1023E00001301799C1FB06301499CBFB01300299DB
:1023F000CDE91D30089B83FB01B0049B0A99C5FB06
:1024000003B0019BC3FB04B0099BC8FB03B0039B53
:10241000C3FB0CB0059BC3FB01B0079B0B99C3FB2F
:1024200007B00E9BC3FB01B017990C9BC2FB06B013
:10243000C1FB03B0109B0499209083FB01310698E7
:10244000CDF87CB0C5FB0031019802460298C2FB72
:1024500000311198039AC0FB04311298C8FB0C316B
:10246000C2FB00310598C0FB07310798024613985C
:10247000C2FB00310E98C0FB063115980246149835
:10248000C2FB003106981593089B0D9A83FB00034D
:102490001791C5FB0203019A9346049ACBFB0203F2
:1024A000099A9346029ACBFB02030A9ACCFB0403D7
:1024B000C8FB0203039AC2FB0703059A93460B9AD3
:1024C000CBFB0203079AC2FB06030E9A93460C9AB3
:1024D000CBFB02030D9A2193109B0E9083FB02030A
:1024E0000F9AC5FB0203019A9346069ACBFB02039F
:1024F000119A9346049ACBFB0203029ACCFB020387
:10250000129AC2FB0403139A0399C8FB0703C1FB89
:102510000203059AC2FB0603079A9346149ACBFB63
:1025200002030F9A2293089B079083FB0203169ADB
:10253000C5FB0203019A93460D9ACBFB0203099A4D
:102540009346069ACBFB0203049ACCFB02030A9A39
:102550009346029ACBFB02030B9AC7FB0403C8FB0A
:102560000203059AC1FB060393460C9ACBFB0203B8
:10257000169A2393109B059083FB0203189AC5FBC0
:102580000203019A93460F9ACBFB0203119A9346DA
:102590000D9ACBFB0203069ACCFB0203129A9346D8
:1025A000049ACBFB0203029AC7FB0203139AC2FBF5
:1025B0000403149AC8FB0603C1FB0203189A119383
:1025C000089B109083FB023219981799C5FB0032C3
:1025D00001981546169AC0FB0235099A0F98C2FB5E
:1025E00000350D9A0698CCFB02350A9AC2FB0035DD
:1025F000049A0298C7FB02350B9A159FC2FB00355F
:102600000C98C6FB04352A461B9CC8FB0032069377
:102610001B9B089213F100764AF10000B60E46EAC1
:10262000801600F07C43B20643EA9613A21A6AEBC6
:10263000030309920A931A9B9E191C9B43EBA0600B
:10264000159B13F10075179B4FEA956543F1000345
:1026500045EA831503F07C44AA0644EA9514BA1AA5
:1026600061EB04010E9C6519219C44EBA36316F1F8
:10267000807440F10000640E44EAC014A6EB446686
:102680000B961D9E341901941E9C44EB606015F15D
:10269000807443F10003640E44EAC314A5EB44655F
:1026A0000C95079D2C190294229C44EB6363019CBA
:1026B00014F1007440F100004FEA94681F9C48EA4E
:1026C000801814EB080B209C44EBA060029C14F1D2
:1026D0000076059C43F10003B60E46EA831614EB20
:1026E000060A239C44EBA3631BF1807C40F10000AD
:1026F0004FEA5C6C4CEAC01C12EB0C0241EB6061CF
:102700001AF18075109843F100036D0E039245EAAB
:10271000C3154019AAEB45650490119840EB63631B
:1027200012F1007741F10001BF0E47EA81170499C9
:1027300011F10074069943F10003A40E44EA8314D6
:1027400009190591089941EBA363059911F180706E
:1027500043F10003400E40EAC3105B16A0FB0E12CB
:102760000EFB0323099A89180A9A43EB020311F11D
:10277000007E43F100034FEA9E6E4EEA831E0B9BE0
:1027800013EB0E03A1EB8E61C9F80430019BC9F86D
:102790000010A3EB8863C9F80830ABEB4C63C9F8B1
:1027A0000C30039BA3EB8762C9F810200C9BC9F87F
:1027B0001C50DF19029BA3EB8666049BC9F81470BA
:1027C000A3EB8464059BC9F81860A3EB4060C9F8CB
:1027D0002040C9F8240025B0BDE8F08F2DE9F04F66
:1027E00095B082464FF02608D1E90262D1E9003067
:1027F00008924FEA400B4FEA430ED1E9047203926C
:10280000D1E9065204920A6A05924A6A1321099292
:1028100072000692089A52000192039A52000292A4
:10282000049A52000A9201FB05F20B92049A08FBEB
:1028300002F20792059A01FB02F9099A039908FB33
:1028400002F208FB01F88BFB021CC3FB031C7300A4
:10285000C3FB091C019B1C46079BC4FB031C0B9C70
:102860007B00C3FB041C039BC3FB081C82FB0638D4
:102870000C910199CEFB0038C9FB01380799C1FBC7
:10288000073802990C460B99C1FB04380D938BFB5A
:1028900000310198CEFB0631C2FB00317800C9FB44
:1028A0000031079804460298C4FB00310B98C0FB26
:1028B000053108980E910B938BFB0631CEFB00314E
:1028C0000298C2FB0731C9FB0031C4FB0531CDE9D9
:1028D0000F31019B680002998BFB0334CEFB073458
:1028E000C6FB0634C2FB01340799C9FB00340498C7
:1028F000C1FB00348BFB07160793039B0898C3FBAF
:102900000E16069BC3FB00160A98C2FB05160B4663
:102910003146C9FB0031CDE91131029B8BFB03101D
:10292000069BCEFB0510C3FB0710019B1E46089BB0
:10293000C6FB03100A9BC2FB0310059B0E46C9FB96
:1029400003608BFB05130896049ECEFB0613069EC0
:10295000B146039EC9FB0613019EC6FB0713059EE5
:1029600089460699C2FB069313930A9BCDF80C90F7
:102970008BFB0393CEFB0693C1FB0593DDE90116A8
:10298000C1FB06930999C7FB0793C2FB01930A9306
:10299000059B0E468BFB0312069BCEFB0612049E84
:1029A000C3FB0612019BC3FB0512029D0E46134694
:1029B000C7FB056306930C9B0C9D13F1007E0596E7
:1029C0004CF100014FEA9E6E4EEA811E01F07C43FD
:1029D0004FEA8E6243EA9E13AD1A6CEB030309952E
:1029E000079D0C930D9B13EB0E0E079B48EBA16804
:1029F00013F1007C44F100034FEA9C6C4CEA831C09
:102A000003F07C414FEA8C6241EA9C11AA1A64EB04
:102A10000104119911EB0C0C129941EBA3631EF107
:102A2000807648F10001760E46EAC116AEEB4665A7
:102A300007950B9DAD1901950E9D45EB61611CF14C
:102A4000807E43F100064FEA5E6343EAC613ACEBB7
:102A500043650B95089DEB18029340EB6663019864
:102A600010F100760F9841F100014FEA966848EAAC
:102A7000811810EB080B109840EBA161029810F13F
:102A8000007643F10000B60E039B46EA80169B19C0
:102A90000393139B43EBA0631BF1807C41F1000087
:102AA0004FEA5C6C4CEAC01C12EB0C0244EB606118
:102AB0000398049210F180750A9843F100036D0E9B
:102AC00045EAC31519EB050940EB636312F1007782
:102AD0004FF0130241F1000119F100744FEA9767BA
:102AE00043F10003A40E47EA8117059944EA8314D1
:102AF0000919A9EB84640591069941EBA363059933
:102B000011F1807043F10003400E40EAC3105B16E0
:102B1000A0FB021E02FB03E3099A89180C9A43EBFF
:102B2000020311F1007E43F100034FEA9E6E4EEA6C
:102B3000831E079B13EB0E03A1EB8E61CAF80430D2
:102B4000019BCAF80010A3EB8863CAF80830ABEB0E
:102B50004C63CAF80C30049BA3EB87620B9BDF1914
:102B6000CAF81020CAF81470029BCAF82040A3EBE0
:102B70008666039BA3EB4565059BCAF81860A3EB2B
:102B80004060CAF81C50CAF8240015B0BDE8F08FA8
:102B90000029A1BFCB1001F00701C05C40FA01F190
:102BA000ACBF01F0010000207047000070B500F1DB
:102BB0001C02041F084E0120002556F8041B54F87F
:102BC000043FC9435B1845EB05011B1841F10000A8
:102BD000A242F2D170BD00BFC0750008F8B5002454
:102BE000064608460D46FFF7E1FFDFF834C002460F
:102BF000C117C0F1000E20465CF8043B55F8247064
:102C00002EEA0303DB1940EB00079B1846F824303B
:102C100004F1010441EB07020021082CECD1F8BDBE
:102C2000C075000810B50446FFF7CEF804F128007F
:102C3000FFF7CEF804F15000FFF7CAF804F178006E
:102C4000BDE81040FFF7C0B838B50A4605460C4647
:102C50002831FFF7D9F82830FFF7E4F804F15001E4
:102C600005F15000FFF7BCF804F1780105F1780098
:102C7000024ABDE83840FFF7F3BA00BF0876000803
:102C80002DE9F04395B0044616460D460A466846BF
:102C9000283104F12808FFF7B7F80AA8FFF7C2F8AF
:102CA000324669466846FFF7DBFA0AA906F12802B0
:102CB00004F15007084604F17809FFF7D1FA0AAA8F
:102CC00069464046FFF7A0F82046FFF7ABF805F14C
:102CD000500238461146FFF797F806F15002394680
:102CE000FFF7BEFA06F1780205F178014846FFF7D2
:102CF000B7FA4A4639466846FFF786F80AA8FFF74A
:102D000091F8424621464846FFF7AAFA0AAA214608
:102D10002046FFF7A5FA6A4641464046FFF7A0FA6B
:102D20000AAA69463846FFF79BFA15B0BDE8F0835A
:102D30002DE9F84F0A9E1C460546904618460F4658
:102D40000A462831FFF760F8304605F1280AFFF7F8
:102D500069F842462146204605F15009FFF780FAFE
:102D600008F1280231463046FFF77AFA324621460A
:102D70005046FFF749F82846FFF754F807F150028C
:102D800005F1780B48461146FFF73EF808F150026E
:102D900007F178015846FFF763FA5A46494620463C
:102DA000FFF732F83046FFF73DF8524629465846BD
:102DB000FFF756FA324629462846FFF751FA2246CF
:102DC00051465046FFF74CFA324621464846BDE888
:102DD000F84FFFF745BA00002DE9F0471446894641
:102DE0000746104604F1280809F1280A04F15005A5
:102DF000FFF7F4FC51464046FFF7F0FC09F15001A3
:102E0000284604F17806FFF7E9FC29462846022205
:102E1000FFF73EF9494607F1780952463046FEF77A
:102E2000F3FF31464846FFF7D9FC2246414630467B
:102E3000FEF7EAFF4046FEF7F5FF324649462046D8
:102E4000FEF7F0FF424629462846FEF7EBFF2A46EA
:102E500021463846FFF704FA4246314607F128007A
:102E6000FFF7FEF92A46414607F15000FFF7F8F94F
:102E7000324621464846BDE8F047FFF7F1B9000069
:102E800038B5FC2204460D4611462846FFF780FE61
:102E900008B9013AF8D14FF6FF7301322380E2708E
:102EA000A37038BD2DE9F84F9846C37805460E4605
:102EB00093420CD111464046571EFFF769FE044667
:102EC00040463946FFF764FE844209D1EF70B5F9F8
:102ED000003093420CBF95F902000020BDE8F88F46
:102EE000511C4FF000098E42A8BF0E4606F1FF3A72
:102EF000971B04FA0AF4BB466442CA450BF1010B66
:102F000009DD59464046FFF743FE00FA09F009F192
:102F100001090444F1E739464046FFF739FE04440D
:102F20006342234013F0AA0F14BF0120002013F0C6
:102F3000CC0118BF022113F0F00340EA010018BFD2
:102F40000423511C03438E1B1E4444FA03F32E80BA
:102F5000AB70BBE7D0E9103210B5D0F8D0400021FB
:102F60001B1952F1000228BF0121C0E9103231B112
:102F7000D0E91232013342F10002C0E9123210BD31
:102F800070B50D46A0F1080600F178042846083512
:102F9000FEF7C0FAE6E90201A642F7D170BD0000D3
:102FA000F8B504460D468E180027B54218D0D4F85F
:102FB000D030802B07D12046FFF7CCFF0021FEF751
:102FC00005FBC4F8D070D4F8D020204615F8011BBA
:102FD000FEF7D8FED4F8D0300133C4F8D030E4E79F
:102FE000F8BD000008B5FEF7E1FA0843B0FA80F03A
:102FF0004009013808BD000000231A468B4202D068
:10300000C2540133FAE7704770B59EB005460C46CE
:1030100004266846FFF7E2FB69460AA8FFF7DEFBD5
:103020000AA90846FFF7DAFB0AAA21461046FFF76D
:1030300017F90AAA69466846FFF712F96946684611
:10304000FFF7CCFB6A460AA96846FFF709F969460B
:103050000AA8FFF7C3FB0AA90846FFF7BFFB013E1A
:10306000F9D16A460AA968460926FFF7F9F86946C0
:103070000AA8FFF7B3FB0AA90846FFF7AFFB013E1A
:10308000F9D10AA96A4613260846FFF7E9F80AA902
:1030900014A8FFF7A3FB14A90846FFF79FFB013E06
:1030A000F9D10AAA14A909261046FFF7D9F80AA9E6
:1030B0000846FFF793FB0AA90846FFF78FFB013E7E
:1030C000F9D16A460AA968463126FFF7C9F8694668
:1030D0000AA8FFF783FB0AA90846FFF77FFB013E1A
:1030E000F9D10AA96A4663260846FFF7B9F80AA982
:1030F00014A8FFF773FB14A90846FFF76FFB013E06
:10310000F9D10AAA14A931261046FFF7A9F80AA98D
:103110000846FFF763FB0AA90846FFF75FFB013E7D
:10312000F9D16A460AA96846FFF79AF869466846DF
:10313000FFF754FB69466846FFF750FB2246694695
:103140002846FFF78DF828216846FFF755FF0DEB5D
:103150000100FFF751FF14A8FFF74EFF1EB070BD2E
:1031600010B58CB0044602A80191FFF74DFF02A9EB
:103170000846FFF733FB02A90846FFF72FFB02A919
:10318000019A0846FFF76CF802A90846FFF726FBEC
:10319000019A02A92046FFF763F8282102A8FFF749
:1031A0002BFF0CB010BD000070B58AB002460B4674
:1031B00001F128066D461868083353F8041C2C46A4
:1031C000B34203C42546F6D11321099B6846002467
:1031D0004B43694603F180735B1605680134083080
:1031E0002B4450F8045C052C05EBA3634FEA6363A2
:1031F000F3D1132000244343086801340831034409
:10320000052C23F07C4041F8080C51F8040C00EB2D
:10321000A3604FEA606320F07E4041F8040CEBD1DC
:103220001046DDE9003143EA8161FEF77FF902993A
:10323000019B101DC90441EA9311FEF777F9039928
:10324000029B02F10800490341EA5331FEF76EF98F
:103250000499039B02F10C00890141EAD341FEF776
:1032600065F902F11000DDE9053143EA4161FEF73D
:103270005DF90799069B02F11400C90441EAD311D4
:10328000FEF754F90899079B02F11800090341EA77
:103290005331FEF74BF90999089B02F11C00890193
:1032A00041EA1351FEF742F928216846FFF7A4FED0
:1032B0000AB070BD2DE9F04F2DED028B9DB00C468C
:1032C0006422002108EE100A03A8FDF7C3FE0DF1E9
:1032D0000C080022DFF8E0E0414604F13C09924688
:1032E000CDF800805EF8043B251F8C4600269846EA
:1032F000284650F8047FD346DCF800300197019F40
:10330000E8FB073B9B194BF1000681454CF8043B59
:10331000EFD101320E640431092AE3D100212022C9
:1033200003A8FDF797FE002103AB8E461A6C002020
:10333000DFF888A09C4690460646C1F108095AF875
:10334000047BF346DCF8002001300197019FE8FB85
:10335000072B92194BF1000648454CF8042BEED38D
:10336000013104330829E1D11C3401210020009BE4
:103370001A6855F8043FD2439B1840EB00025B18D3
:10338000009941F8043B009142F10001A542EED1C1
:1033900003A90846FFF722FC082203A918EE100A29
:1033A000FEF7DAF8642103A8FFF726FE1DB0BDEC96
:1033B000028BBDE8F08F00BF187B0008C0750008C5
:1033C00010B588B001466846FFF7EEFE9DF8004054
:1033D0006846202104F00104FFF70EFE204608B0E5
:1033E00010BD000030B59FB00D4604465031684610
:1033F000FFF7B6FE6A4629460AA8FEF731FF6A467D
:1034000005F1280114A8FEF72BFF14A92046FFF7A9
:10341000CBFE0AA8FFF7D4FFE37F282183EAC01080
:10342000E0776846FFF7E8FD0DEB0100FFF7E4FDEC
:1034300014A8FFF7E1FD1FB030BD000010B590B03B
:103440000446102201466846FEF778F86946204691
:10345000FFF730FF40216846FFF7CEFD10B010BDEA
:1034600010B590B00C4601466846FFF79DFE214618
:1034700008A8FFF799FE08A96846FFF7B3FD2021C9
:1034800004466846FFF7B8FD0DEB0100FFF7B4FDF9
:10349000601C10B010BD0000F0B595B00446684641
:1034A000FEF79EFC69462046FFF7AEFD21460AA8BE
:1034B000FFF794F90AA96A460846FEF7D1FE684666
:1034C000FEF786FC69460AA8FFF7CAFF694606466A
:1034D0006846FEF78FFC0AA8FFF7C2FF104A0546B0
:1034E00068461146FEF786FC69460AA8FFF7B8FF52
:1034F0000746214668460A4AFEF7B2FE45EA070239
:1035000069462046FEF79CFC28210DEB0100FFF7E1
:1035100073FD6846FFF770FD46EA050015B0F0BD83
:1035200070760008DFF880C02DE9F0419046A0B029
:1035300004460E461D4600F108070CF138026346AA
:10354000083703CB934247F8080C47F8041C9C4605
:10355000F5D186EA0522124B002153400022236058
:10356000104B63600023C4E93416C4E91023C4E996
:1035700012238DB17C2201A80091FDF76BFD2A4634
:1035800041466846FDF740FD694604F15000FFF7EB
:10359000F7FC8023C4F8D03020B0BDE8F08100BF34
:1035A00008C9BDF267E6096A3876000800234021A1
:1035B0001A46FFF7B7BF00008830FFF7F7BF0000DB
:1035C0002DE9F04704460D4617469AB3D0F8D0606F
:1035D0004FF0000A04F150094FF08008764206F0DF
:1035E0007F06964228BF164632463544BE1BFFF77B
:1035F000D7FC26F07F072F44AF4213D0D4F8D03049
:10360000802B07D12046FFF7A5FC0021FDF7DEFF48
:10361000C4F8D0A029464846FFF7B2FC8035C4F86C
:10362000D080E9E706F07F0239462046BDE8F04742
:10363000FFF7B6BCBDE8F0878830FFF7C1BF0000D8
:103640002DE9F84304460D46D0F8D0607F2E06D809
:103650003246002120460136FEF794FBF6E720466D
:10366000A4F10807FFF776FC0121FDF7AFFFD4F8BE
:10367000D4202E4622F00708A84446450CD057F81F
:10368000081F3046D7F80490FDF750FF301D08366C
:103690004946FDF74BFFF0E722F00703D4F8D420AA
:1036A0009A4217D903F0070223F00700DE08D10081
:1036B000204454F836204768C1F12006A1F12000CB
:1036C000CA4007FA06F627FA00F032430243EA54EA
:1036D0000133E3E72046D821BDE8F843FFF78CBC6F
:1036E0008830FFF7ADBF000010B5B6B0044668469D
:1036F000FFF718FF6846DDE93812FFF761FF214642
:103700006846FFF79DFF36B010BD0000002307B5E7
:10371000CDE900121A464021FFF7E6FF03B05DF83D
:1037200004FB000003689B68184700002DE9F04186
:103730000E46044615460139024606F13F0042F89E
:10374000043B11F8017F814202F8017BF9D16A1E26
:1037500004F1640105F11F0012F8017F824201F8B3
:10376000017BF9D120465B689847236831462046A3
:103770009B68202298472368294620469B68202280
:10378000BDE8F04118470000014BFFF7CFBF00BF75
:103790003C7B0008FFF7C6BF2DE9F04F8046ADF532
:1037A0006F7D054658F8043B16A905F1240A05F17A
:1037B0006409DB6826AC984716A8FFF73FFE08228D
:1037C000514604A8FDF7BAFE494630A8FEF74CFB67
:1037D0003AA8FEF7FDFA30A944A8FEF7FFFF864A93
:1037E00044A92046FEF73CFD44A93AAA0846FEF744
:1037F00019FB20462146FEF707FB44A92246FEF7A7
:103800002FFD21462046FFF747FE28B94FF0FF3035
:103810000DF56F7DBDE8F08F224644A92046FEF7E6
:103820001FFD2046FFF7CCFD95F88330B0EBD31F8A
:1038300003D021462046FEF7DDFA44A830AA2146EF
:10384000FEF70EFD04A8FFF7B1F90028DED12146EE
:103850002046FEF7CFFA44A94EAF0846FEF7CAFA53
:1038600076AA21463846FFF7B7FA21469EA8FFF709
:10387000EBF99EAA394676A8FFF702FA76A9C6A800
:10388000FFF7E2F916A902A8FFF7FAFA03A85146D2
:10389000FFF7F6FA9DF80B609DF80F3020469E4228
:1038A00038BF1E46FFF7BEF93A4621462046FFF7CD
:1038B00093FA16AB3246032102A8FFF7F3FA054646
:1038C0005346052103A8FFF7EDFA002D834623DDBB
:1038D0006D10A0229EAB02FB053221462046FFF769
:1038E000CFF9BBF1000F3ADD76AB44494FEA6B0BE1
:1038F00078220093204602FB0B120CAB2146FFF707
:1039000017FA013ED0D226A94846FFF76BFD49467B
:103910004046FFF767FB7BE7E3D005EBD5756FF01B
:103920009F019EAB80A86D104D435919FEF758FAC0
:103930009EAB05F1280176A81944FEF751FA9EAB1B
:1039400005F150018AA81944FEF74AFA9EAB05F129
:10395000780194A81944FEF74DFA76AABDE7D0D0B5
:103960000BEBDB73254A6FF0770530A95B100CA8D1
:1039700003FB05252246FEF747FA76A8FEF752FA22
:103980000CA905F128020846FEF76AFC76A92A462A
:103990000846FEF765FC76AA0CA930A8FEF734FAB3
:1039A0002046FEF73FFA3AAA11461046FEF72CFAD7
:1039B00044A905F150020846FEF752FC44AA3AA970
:1039C0000CA8FEF72FFA76A8FEF71EFA30AA2146B9
:1039D00044A8FEF745FC76AA21462046FEF740FCA7
:1039E00030A90CAA0846FEF73BFC76AA0CA93AA817
:1039F000FEF736FC85E700BFE07500089876000802
:103A000008B5074B074A196801F03D0199605368F2
:103A10000BB190689847BDE8084002F05DB800BF60
:103A200000000240E023002008B5084B196889090E
:103A300001F03D018A019A60054AD3680BB1106913
:103A40009847BDE8084002F047B800BF00000240B8
:103A5000E023002008B5084B1968090C01F03D016E
:103A60000A049A60054A53690BB190699847BDE80A
:103A7000084002F031B800BF00000240E0230020FF
:103A800008B5084B1968890D01F03D018A059A6057
:103A9000054AD3690BB1106A9847BDE8084002F0A7
:103AA0001BB800BF00000240E023002008B5074B10
:103AB000074A596801F03D01D960536A0BB1906A19
:103AC0009847BDE8084002F007B800BF0000024078
:103AD000E023002008B5084B5968890901F03D0131
:103AE0008A01DA60054AD36A0BB1106B9847BDE8CA
:103AF000084001F0F1BF00BF00000240E0230020B9
:103B000008B5084B5968090C01F03D010A04DA6058
:103B1000054A536B0BB1906B9847BDE8084001F024
:103B2000DBBF00BF00000240E023002008B5084BC7
:103B30005968890D01F03D018A05DA60054AD36BA9
:103B40000BB1106C9847BDE8084001F0C5BF00BF3D
:103B500000000240E023002008B5074B074A19681F
:103B600001F03D019960536C0BB1906C9847BDE832
:103B7000084001F0B1BF00BF00040240E023002074
:103B800008B5084B1968890901F03D018A019A605E
:103B9000054AD36C0BB1106D9847BDE8084001F0A1
:103BA0009BBF00BF00040240E023002008B5084B83
:103BB0001968090C01F03D010A049A60054A536D29
:103BC0000BB1906D9847BDE8084001F085BF00BF7C
:103BD00000040240E023002008B5084B1968890D55
:103BE00001F03D018A059A60054AD36D0BB1106E54
:103BF0009847BDE8084001F06FBF00BF00040240D5
:103C0000E023002008B5074B074A596801F03D0141
:103C1000D960536E0BB1906E9847BDE8084001F033
:103C20005BBF00BF00040240E023002008B5084B42
:103C30005968890901F03D018A01DA60054AD36EAD
:103C40000BB1106F9847BDE8084001F045BF00BFB9
:103C500000040240E023002008B5084B5968090C15
:103C600001F03D010A04DA60054A536F0BB1906F11
:103C70009847BDE8084001F02FBF00BF0004024094
:103C8000E023002008B5084B5968890D01F03D017B
:103C90008A05DA60054AD36F13B1D2F880009847DD
:103CA000BDE8084001F018BF00040240E0230020F6
:103CB00000230C4910B51A460B4C0B6054F8230036
:103CC000026001EB430004334260402BF6D1074A07
:103CD0004FF0FF339360D360C2F80834C2F80C345D
:103CE00010BD00BFE0230020507B00080000024010
:103CF0000F28F8B510D9102810D0112811D012288B
:103D000008D10F240720DFF8C8E00126DEF80050B4
:103D1000A04208D9002653E00446F4E70F2400200F
:103D2000F1E70724FBE706FA00F73D424AD1264CAB
:103D30004FEA001C3D4304EB00160EEBC000CEF82A
:103D40000050C0E90123FBB273B12048D0F8D8304D
:103D500043F00103C0F8D830D0F8003143F001033C
:103D6000C0F80031D0F8003117F47F4F0ED017485B
:103D7000D0F8D83043F00203C0F8D830D0F8003182
:103D800043F00203C0F80031D0F8003154F80C00C1
:103D9000036823F01F030360056815F00105FBD1DC
:103DA00004EB0C033D2493F80CC05F6804FA0CF498
:103DB0003C6021240560446112B1987B00F0D0F989
:103DC0003046F8BD0130A3E7507B0008004402589C
:103DD000E023002010B5302484F31188FFF788FF1A
:103DE000002383F3118810BD10B50446807B00F0DA
:103DF000CDF901231549627B03FA02F20B6823EA2D
:103E00000203DAB20B6072B9114AD2F8D81021F06D
:103E10000101C2F8D810D2F8001121F00101C2F856
:103E20000011D2F8002113F47F4F0ED1084BD3F8C4
:103E3000D82022F00202C3F8D820D3F8002122F0C3
:103E40000202C3F80021D3F8003110BDE0230020A6
:103E50000044025808B5302383F31188FFF7C4FFEC
:103E6000002383F3118808BD026843681143016091
:103E700003B1184770470000024A136843F0C003BB
:103E80001360704700480040024A136843F0C003C3
:103E90001360704700500040024A136843F0C003AB
:103EA0001360704700780040064BD3F8E8200243C7
:103EB000C3F8E820D3F810211043C3F81001D3F859
:103EC000103170470044025837B5274C274D204623
:103ED00000F006FB04F11400009400234FF400727C
:103EE000234900F0C3F94FF40072224904F138006D
:103EF0000094214B00F03CFA204BC4E91735204CCC
:103F0000204600F0EDFA04F11400009400234FF471
:103F100000721C4900F0AAF94FF400721A4904F12A
:103F200038000094194B00F023FA194BC4E91735F7
:103F3000184C204600F0D4FA04F1140000234FF48A
:103F400000721549009400F091F9144B4FF400727F
:103F5000134904F13800009400F00AFA114BC4E947
:103F6000173503B030BD00BF6424002000E1F50523
:103F7000A8250020A82B0020793E0008004800401A
:103F8000D0240020A8270020A82D0020893E00086A
:103F9000005000403C250020A8290020993E000840
:103FA000A82F00200078004038B5264D0446037C39
:103FB000002918BF0D46012B06D1234B984230D162
:103FC0004FF48020FFF770FF2A68236EE16D03EB4A
:103FD0005203A566B3FBF2F36A68100442BF23F0F4
:103FE000070003F0070343EA4003CB60AB6843F0EC
:103FF00040034B60EB6843F001038B6042F496731F
:1040000043F001030B604FF0FF330B62510505D500
:1040100012F0102211D0B2F1805F10D084F8643019
:1040200038BD0A4B984205D0094B9842CCD14FF08D
:104030008040C7E74FF48010C4E77F23EEE73F23BB
:10404000ECE700BF507C000864240020D02400204E
:104050003C2500202DE9F047C66D05463768F46918
:10406000210734621AD014F0080118BF4FF4807190
:10407000E20748BF41F02001A3074FF0300348BFDB
:1040800041F04001600748BF41F0800183F311888F
:10409000281DFFF7E9FE002383F31188E2050AD506
:1040A000302383F311884FF48061281DFFF7DCFE75
:1040B000002383F311884FF030094FF0000A14F009
:1040C000200838D13B0616D54FF0300905F1380AE3
:1040D000200610D589F31188504600F07DF900289C
:1040E00036DA0821281DFFF7BFFE27F08003336072
:1040F000002383F31188790614D5620612D5302384
:1041000083F31188D5E913239A4208D12B6C33B17C
:1041100027F040071021281DFFF7A6FE3760002377
:1041200083F31188E30618D5AA6E1369ABB1506901
:10413000BDE8F047184789F31188736A284695F857
:104140006410194000F0E6F98AF31188F469B6E7C3
:10415000B06288F31188F469BAE7BDE8F08700001F
:10416000090100F16043012203F56143C9B283F8FC
:10417000001300F01F039A4043099B0003F16043C2
:1041800003F56143C3F880211A60704700F01F03F4
:1041900001229A40430900F160409B0000F5614014
:1041A00003F1604303F56143C3F88020C3F8802125
:1041B000002380F800337047F8B51546826804463E
:1041C0000B46AA4200D28568A1692669761AB542D3
:1041D0000BD218462A46FCF717FFA3692B44A361AC
:1041E0002846A3685B1BA360F8BD0CD9AF1B18461B
:1041F0003246FCF709FF3A46E1683044FCF704FF19
:10420000E3683B44EBE718462A46FCF7FDFEE3680B
:10421000E5E7000083689342F7B50446154600D2EF
:104220008568D4E90460361AB5420BD22A46FCF7F9
:10423000EBFE63692B4463612846A3685B1BA360A4
:1042400003B0F0BD0DD93246AF1B0191FCF7DCFE87
:1042500001993A46E0683144FCF7D6FEE3683B44F6
:10426000E9E72A46FCF7D0FEE368E4E710B50A4424
:104270000024C361029B8460C16002610362C0E9E3
:104280000000C0E9051110BD08B5D0E90532934220
:1042900001D1826882B98268013282605A1C42610F
:1042A00019700021D0E904329A4224BFC3684361E7
:1042B00000F0B0FE002008BD4FF0FF30FBE700002B
:1042C00070B5302304460E4683F31188A568A5B166
:1042D000A368A269013BA360531CA36115782269FE
:1042E000934224BFE368A361E3690BB1204698477A
:1042F000002383F31188284607E03146204600F06A
:1043000079FE0028E2DA85F3118870BD2DE9F74FB8
:1043100004460E4617469846D0F81C904FF0300AD7
:104320008AF311884FF0000B154665B12A463146D5
:104330002046FFF741FF034660B94146204600F0A2
:1043400059FE0028F1D0002383F31188781B03B0B5
:10435000BDE8F08FB9F1000F03D001902046C847A7
:10436000019B8BF31188ED1A1E448AF31188DCE758
:10437000C160C361009B82600362C0E90511114402
:10438000C0E9000001617047F8B504460D461646C5
:10439000302383F31188A768A7B1A368013BA3600A
:1043A00063695A1C62611D70D4E904329A4224BFC9
:1043B000E3686361E3690BB120469847002080F30E
:1043C000118807E03146204600F014FE0028E2DAAA
:1043D00087F31188F8BD0000D0E9052310B59A4293
:1043E00001D182687AB982680021013282605A1C48
:1043F00082611C7803699A4224BFC368836100F01C
:1044000009FE204610BD4FF0FF30FBE72DE9F74FC6
:1044100004460E4617469846D0F81C904FF0300AD6
:104420008AF311884FF0000B154665B12A463146D4
:104430002046FFF7EFFE034660B94146204600F0F4
:10444000D9FD0028F1D0002383F31188781B03B035
:10445000BDE8F08FB9F1000F03D001902046C847A6
:10446000019B8BF31188ED1A1E448AF31188DCE757
:10447000026843681143016003B1184770470000A8
:104480001430FFF743BF00004FF0FF331430FFF745
:104490003DBF00003830FFF7B9BF00004FF0FF33D9
:1044A0003830FFF7B3BF00001430FFF709BF00003A
:1044B0004FF0FF311430FFF703BF00003830FFF733
:1044C00063BF00004FF0FF323830FFF75DBF0000E0
:1044D000012914BF6FF0130000207047FFF7F4BCF0
:1044E000044B036000234360C0E9023301230374DB
:1044F000704700BF687C000810B53023044683F382
:104500001188FFF751FD02230020237480F31188E6
:1045100010BD000038B5C36904460D461BB904211F
:104520000844FFF7A5FF294604F11400FFF7ACFE8D
:10453000002806DA201D4FF40061BDE83840FFF77F
:1045400097BF38BD026843681143016003B1184743
:104550007047000013B5406B00F58054D4F8A438C0
:104560001A681178042914D1017C022911D1197912
:10457000012312898B4013420BD101A94C3002F068
:104580009BF9D4F8A4480246019B2179206800F0E9
:10459000DFF902B010BD0000143002F01DB90000B8
:1045A0004FF0FF33143002F017B900004C3002F026
:1045B000EFB900004FF0FF334C3002F0E9B90000D2
:1045C000143002F0EBB800004FF0FF31143002F06D
:1045D000E5B800004C3002F0BBB900004FF0FF32EC
:1045E0004C3002F0B5B900000020704710B500F55E
:1045F0008054D4F8A4381A681178042917D1017CA2
:10460000022914D15979012352898B4013420ED1CA
:10461000143002F07DF8024648B1D4F8A4484FF4B3
:10462000407361792068BDE8104000F07FB910BD8B
:10463000406BFFF7DBBF0000704700007FB5124BF7
:1046400001250426044603600023057400F184025A
:1046500043602946C0E902330C4B029014300193A9
:104660004FF44073009602F02FF8094B04F6944281
:10467000294604F14C000294CDE900634FF44073E5
:1046800002F0F6F804B070BD907C000831460008D6
:10469000554500080A68302383F311880B790B33E2
:1046A00042F823004B79133342F823008B7913B17E
:1046B0000B3342F8230000F58053C3F8A4180223FB
:1046C0000374002080F311887047000038B5037F21
:1046D000044613B190F85430ABB90125201D0221D6
:1046E000FFF730FF04F114006FF00101257700F0AF
:1046F0009DFC04F14C0084F854506FF00101BDE8BA
:10470000384000F093BC38BD10B501210446043098
:10471000FFF718FF0023237784F8543010BD000002
:1047200038B504460025143001F0E6FF04F14C00D2
:10473000257702F0B5F8201D84F854500121FFF7C9
:1047400001FF2046BDE83840FFF750BF90F88030A9
:1047500003F06003202B06D190F881200023212A4A
:1047600003D81F2A06D800207047222AFBD1C0E9AF
:104770001D3303E0034A426707228267C3670120B3
:10478000704700BF3C22002037B500F58055D5F8B2
:10479000A4381A68117804291AD1017C022917D18A
:1047A0001979012312898B40134211D100F14C0475
:1047B000204602F035F958B101A9204602F07CF8F4
:1047C000D5F8A4480246019B2179206800F0C0F882
:1047D00003B030BD01F10B03F0B550F8236085B094
:1047E00004460D46FEB1302383F3118804EB8507A0
:1047F000301D0821FFF7A6FEFB6806F14C005B693F
:104800001B681BB1019002F065F8019803A902F042
:1048100053F8024648B1039B2946204600F098F819
:10482000002383F3118805B0F0BDFB685A69126854
:10483000002AF5D01B8A013B1340F1D104F180021C
:10484000EAE70000133138B550F82140ECB13023CD
:1048500083F3118804F58053D3F8A42813685279A0
:1048600003EB8203DB689B695D6845B10421601836
:10487000FFF768FE294604F1140001F053FF2046BB
:10488000FFF7B4FE002383F3118838BD70470000A2
:1048900001F020BA01234022002110B5044600F89F
:1048A000303BFCF7D7FB0023C4E9013310BD000007
:1048B00010B53023044683F311882422416000217F
:1048C0000C30FCF7C7FB204601F026FA022300203B
:1048D000237080F3118810BD70B500EB810305468D
:1048E00050690E461446DA6018B110220021FCF718
:1048F000B1FBA06918B110220021FCF7ABFB3146D7
:104900002846BDE8704001F00DBB000083682022FE
:10491000002103F0011310B5044683601030FCF74A
:1049200099FB2046BDE8104001F088BBF0B401259A
:1049300000EB810447898D40E4683D43A4694581CB
:1049400023600023A2606360F0BC01F0A5BB0000FF
:10495000F0B4012500EB810407898D40E4683D43F4
:104960006469058123600023A2606360F0BC01F0EC
:104970001BBC000070B502230025044624220370EE
:104980002946C0F888500C3040F8045CFCF762FB04
:10499000204684F8705001F059FA63681B6823B10F
:1049A00029462046BDE87040184770BD0378052BA6
:1049B00010B504460AD080F88C3005230370436894
:1049C0001B680BB1042198470023A36010BD0000B1
:1049D0000178052906D190F88C20436802701B6885
:1049E00003B118477047000070B590F87030044666
:1049F00013B1002380F8703004F18002204601F0EA
:104A000041FB63689B68B3B994F8803013F060058C
:104A100035D00021204601F033FE0021204601F070
:104A200023FE63681B6813B10621204698470623BE
:104A300084F8703070BD204698470028E4D0B4F860
:104A40008630A26F9A4288BFA36794F98030A56F21
:104A5000002B4FF0300380F20381002D00F0F28034
:104A6000092284F8702083F3118800212046D4E9BC
:104A70001D23FFF76DFF002383F31188DAE794F815
:104A8000812003F07F0343EA022340F20232934283
:104A900000F0C58021D8B3F5807F48D00DD8012B18
:104AA0003FD0022B00F09380002BB2D104F188029A
:104AB00062670222A267E367C1E7B3F5817F00F076
:104AC0009B80B3F5407FA4D194F88230012BA0D114
:104AD000B4F8883043F0020332E0B3F5006F4DD0F4
:104AE00017D8B3F5A06F31D0A3F5C063012B90D8D0
:104AF0006368204694F882205E6894F88310B4F8C6
:104B00008430B047002884D0436863670368A36794
:104B10001AE0B3F5106F36D040F6024293427FF4AC
:104B200078AF5C4B63670223A3670023C3E794F865
:104B30008230012B7FF46DAFB4F8883023F002038C
:104B4000A4F88830C4E91D55E56778E7B4F88030EB
:104B5000B3F5A06F0ED194F88230204684F88A30E5
:104B600001F0D2F963681B6813B101212046984710
:104B7000032323700023C4E91D339CE704F18B0356
:104B800063670123C3E72378042B10D1302383F319
:104B900011882046FFF7BAFE85F311880321636868
:104BA00084F88B5021701B680BB12046984794F80D
:104BB0008230002BDED084F88B30042323706368AE
:104BC0001B68002BD6D0022120469847D2E794F8E4
:104BD000843020461D0603F00F010AD501F044FA87
:104BE000012804D002287FF414AF2B4B9AE72B4BFB
:104BF00098E701F02BFAF3E794F88230002B7FF46A
:104C000008AF94F8843013F00F01B3D01A06204691
:104C100002D501F04DFDADE701F03EFDAAE794F8A5
:104C20008230002B7FF4F5AE94F8843013F00F013E
:104C3000A0D01B06204602D501F022FD9AE701F024
:104C400013FD97E7142284F8702083F311882B4614
:104C50002A4629462046FFF769FE85F31188E9E6D2
:104C60005DB1152284F8702083F31188002120465D
:104C7000D4E91D23FFF75AFEFDE60B2284F87020CD
:104C800083F311882B462A4629462046FFF760FE0B
:104C9000E3E700BFC07C0008B87C0008BC7C0008CB
:104CA00038B590F870300446002B3ED0063BDAB29F
:104CB0000F2A34D80F2B32D8DFE803F03731310810
:104CC000223231313131313131313737856FB0F8FE
:104CD00086309D4214D2C3681B8AB5FBF3F203FBF6
:104CE00012556DB9302383F311882B462A46294685
:104CF000FFF72EFE85F311880A2384F870300EE04A
:104D0000142384F87030302383F311880023204665
:104D10001A461946FFF70AFE002383F3118838BDAF
:104D2000C36F03B198470023E7E70021204601F055
:104D3000A7FC0021204601F097FC63681B6813B1B3
:104D40000621204698470623D7E7000010B590F8C3
:104D500070300446142B29D017D8062B05D001D863
:104D60001BB110BD093B022BFBD80021204601F0EE
:104D700087FC0021204601F077FC63681B6813B1B3
:104D8000062120469847062319E0152BE9D10B236D
:104D900080F87030302383F3118800231A461946B7
:104DA000FFF7D6FD002383F31188DAE7C3689B6918
:104DB0005B68002BD5D1C36F03B19847002384F8FB
:104DC0007030CEE700238268037503691B68996819
:104DD0009142FBD25A68036042601060586070478D
:104DE00000238268037503691B6899689142FBD8A8
:104DF0005A680360426010605860704708B5084602
:104E0000302383F311880A7D0023052A06D8DFE8C2
:104E100002F00B050503120E826913604FF0FF3399
:104E20008361FFF7CFFF002383F3118808BD8269F8
:104E3000936801339360D0E9003213605A60EDE764
:104E4000FFF7C0BF054BD968087518680268536042
:104E50001A600122D8600275FBF778BBA8310020E8
:104E60000C4B30B5DD684B1C87B004460FD02B4689
:104E7000094A684600F06EF92046FFF7E3FF009B01
:104E800013B1684600F070F9A86907B030BDFFF7AC
:104E9000D9FFF9E7A8310020FD4D000838B50C4DC9
:104EA00004468161EB6881689A68914203D8BDE845
:104EB0003840FFF787BF1846FFF792FF01230146EE
:104EC000EC6020462375BDE83840FBF73FBB00BFD0
:104ED000A8310020044B1A68DB6890689B689842F0
:104EE00094BF002001207047A8310020084B10B566
:104EF0001C68D868226853601A600122DC60227541
:104F0000FFF76EFF01462046BDE81040FBF71EBBD1
:104F1000A831002038B50123084C002523706560B6
:104F200001F0BAFD01F0E0FD0549064801F0B4FECC
:104F30000223237085F3118838BD00BF1034002090
:104F4000C87C0008A831002000F044B9034A516829
:104F500053685B1A9842FBD8704700BF001000E00E
:104F60008B600223086108468B8270478368A3F137
:104F7000840243F8142C026943F8442C426943F834
:104F8000402C094A43F8242CC268A3F1200043F8BE
:104F9000182C022203F80C2C002203F80B2C034AD5
:104FA00043F8102C704700BF65050008A8310020A9
:104FB00008B5FFF7DBFFBDE80840FFF741BF000081
:104FC000024BDB6898610F20FFF73CBFA83100203F
:104FD000302383F31188FFF7F3BF000008B50146C3
:104FE000302383F311880820FFF73AFF002383F36F
:104FF000118808BD064BDB6839B1426818605A60F9
:10500000136043600420FFF72BBF4FF0FF30704761
:10501000A83100200368984206D01A6802605060E8
:1050200018469961FFF70CBF7047000038B5044679
:105030000D462068844200D138BD036823605C605F
:105040008561FFF7FDFEF4E7036810B59C68A24296
:105050000CD85C688A600B604C602160596099686C
:105060008A1A9A604FF0FF33836010BD121B1B68D1
:10507000ECE700000A2938BF0A2170B504460D4646
:105080000A26601901F002FD01F0EAFC041BA542AA
:1050900003D8751C04462E46F3E70A2E04D90120D6
:1050A000BDE8704001F038BE70BD0000F8B5144B8B
:1050B0000D460A2A4FF00A07D96103F110018260F8
:1050C00038BF0A22416019691446016048601861BE
:1050D000A81801F0CBFC01F0C3FC431B0646A34219
:1050E00006D37C1C28192746354601F0CFFCF2E791
:1050F0000A2F04D90120BDE8F84001F00DBEF8BD2B
:10510000A8310020F8B506460D4601F0A9FC0F4A6B
:10511000134653F8107F9F4206D12A460146304677
:10512000BDE8F840FFF7C2BFD169BB68441A2C192B
:1051300028BF2C46A34202D92946FFF79BFF2246EF
:1051400031460348BDE8F840FFF77EBFA831002094
:10515000B8310020C0E90323002310B45DF8044BEC
:105160004361FFF7CFBF000010B5194C2369984287
:105170000DD08168D0E9003213605A609A680A4401
:105180009A60002303604FF0FF33A36110BD0268F3
:10519000234643F8102F53600022026022699A428E
:1051A00003D1BDE8104001F06BBC936881680B44EB
:1051B000936001F055FC2269E1699268441AA242A9
:1051C000E4D91144BDE81040091AFFF753BF00BFEE
:1051D000A83100202DE9F047DFF8BC8008F1100766
:1051E0002C4ED8F8105001F03BFCD8F81C40AA68AF
:1051F000031B9A423ED814444FF00009D5E900320F
:10520000C8F81C4013605A60C5F80090D8F81030F8
:10521000B34201D101F034FC89F31188D5E903319F
:1052200028469847302383F311886B69002BD8D028
:1052300001F016FC6A69A0EB040982464A450DD2CA
:10524000022001F069FD0022D8F81030B34208D1E5
:1052500051462846BDE8F047FFF728BF121A2244FE
:10526000F2E712EB09092946384638BF4A46FFF7EC
:10527000EBFEB5E7D8F81030B34208D01444C8F8B4
:105280001C00211AA960BDE8F047FFF7F3BEBDE896
:10529000F08700BFB8310020A831002000207047FF
:1052A000FEE70000704700004FF0FF30704700003D
:1052B00002290CD0032904D00129074818BF002077
:1052C0007047032A05D8054800EBC2007047044820
:1052D00070470020704700BFAC7D00084C220020C2
:1052E000607D000870B59AB005460846144601A9CD
:1052F00000F0C2F801A8FBF7A5FE431C0022C6B2CD
:105300005B001046C5E9003423700323023404F81F
:10531000013C01ABD1B202348E4201D81AB070BD4B
:1053200013F8011B013204F8010C04F8021CF1E728
:1053300008B5302383F311880348FFF725FA0023CB
:1053400083F3118808BD00BF1834002090F8803026
:1053500003F01F02012A07D190F881200B2A03D104
:105360000023C0E91D3315E003F06003202B08D1B2
:10537000B0F884302BB990F88120212A03D81F2A55
:1053800004D8FFF7E3B9222AEBD0FAE7034A4267D1
:1053900007228267C3670120704700BF43220020B5
:1053A00007B5052917D8DFE801F0191603191920E8
:1053B000302383F31188104A01210190FFF78CFA02
:1053C000019802210D4AFFF787FA0D48FFF7A8F967
:1053D000002383F3118803B05DF804FB302383F3CB
:1053E00011880748FFF772F9F2E7302383F3118839
:1053F0000348FFF789F9EBE7007D0008247D0008EA
:105400001834002038B50C4D0C4C2A460C4904F1D8
:105410000800FFF767FF05F1CA0204F1100009490F
:10542000FFF760FF05F5CA7204F118000649BDE8F0
:105430003840FFF757BF00BFF04C00204C2200203F
:10544000D47C0008DE7C0008F47C000870B50446BB
:1054500008460D46FBF7F6FDC6B220460134037838
:105460000BB9184670BD32462946FBF7D7FD002818
:10547000F3D10120F6E700002DE9F84F05460C4670
:10548000FBF7E0FD2D49C6B22846FFF7DFFF08B164
:105490000436F6B22A492846FFF7D8FF08B110367D
:1054A000F6B2632E0DD8DFF89490DFF894A0DFF801
:1054B0009C80DFF89CB0234F2E7846B92670BDE85B
:1054C000F88F29462046BDE8F84F02F045B8252E52
:1054D00030D1072249462846FBF7A0FD70B93B684A
:1054E00007350B3444F80B3C7B6844F8073C3B8998
:1054F00024F8033CBB7A04F8013CDDE7082251465E
:105500002846FBF78BFDA8B9A21C0F4B1978023275
:10551000090911F8081002F8041C13F8011B01F026
:105520000F015B4511F8081002F8031CEED1183486
:105530000835C1E7013504F8016BBDE7CC7D0008F3
:10554000F47C0008D47D000800E8F11FE07D00082D
:105550000CE8F11FBFF34F8F044B1A695107FCD1C0
:10556000D3F810215207F8D1704700BF0020005235
:1055700008B50D4B1B78ABB9FFF7ECFF0B4BDA68A6
:10558000D10704D50A4A5A6002F188325A60D3F82A
:105590000C21D20706D5064AC3F8042102F188324D
:1055A000C3F8042108BD00BF4E4F00200020005268
:1055B0002301674508B5114B1B78F3B9104B1A69E5
:1055C000510703D5DA6842F04002DA60D3F81021BF
:1055D000520705D5D3F80C2142F04002C3F80C2144
:1055E000FFF7B8FF064BDA6842F00102DA60D3F841
:1055F0000C2142F00102C3F80C2108BD4E4F0020DF
:10560000002000520F289ABF00F58060400400205F
:10561000704700004FF400307047000010207047C2
:105620000F2808B50BD8FFF7EDFF00F5003302682F
:10563000013204D104308342F9D1012008BD002099
:10564000FCE700000F2838B505463FD8FFF782FF7A
:105650001F4CFFF78DFF4FF0FF3307286361C4F83D
:1056600014311DD82361FFF775FF030243F02403B3
:10567000E360E36843F08003E36023695A07FCD4E6
:105680002846FFF767FFFFF7BDFF4FF4003100F03A
:10569000C3F92846FFF78EFFBDE83840FFF7C0BFCB
:1056A000C4F81031FFF756FFA0F108031B0243F0C6
:1056B0002403C4F80C31D4F80C3143F08003C4F84F
:1056C0000C31D4F810315B07FBD4D9E7002038BD8A
:1056D000002000522DE9F84F04460D46104644EADA
:1056E0000203DE0602D00020BDE8F88F20F01F0084
:1056F000DFF8D4B0DFF8D4A0FFF73AFF05EB0008DD
:10570000454503D10120FFF755FFEDE7202229464B
:10571000204601F0EFFE10B920342035F0E7234693
:1057200004F120021F68791CDDD104339342F9D1C2
:1057300004F178432048214EB3F5801F204B38BF39
:10574000184603F1F80332BFD946D1461E46FFF78B
:1057500001FF0760A4EB050C336805F11C0143F061
:10576000020333602B1FD9F8007017F00507FAD138
:1057700053F8042F8B424CF80320F4D1BFF34F8F22
:10578000FFF7E8FE4FF0FF330360336823F00203B6
:105790003360BFF34F8F0B4BC3F85C42BFF34F8FA7
:1057A000BFF36F8F20222946204601F0A3FE002878
:1057B000B2D03846A7E700BF142100520C20005297
:1057C0001420005200ED00E0102000521021005281
:1057D00010B5084C237828B11BB9FFF7C9FE012387
:1057E000237010BD002BFCD02070BDE81040FFF7E7
:1057F000E1BE00BF4E4F00202DE9F04F0D4685B0B1
:10580000814658B111F00D0614BF2022082211F074
:105810000803019304D0431E03426AD0002435E0FC
:10582000002E37D009F11F0121F01F094FF00108A8
:10583000324F05F00403DFF8D0A005EA080BBBF1F6
:10584000000F32D07869C0072FD408F101080C3757
:10585000B8F1060FF3D19EB9294D4946A819019216
:1058600001F064F9044600283AD11836019A782EDE
:10587000F3D1494601F05AF90446002830D1019A83
:105880004946204801F052F9044668BB204605B05D
:10589000BDE8F08F0029C9D101462846029201F0E7
:1058A00045F90446E0B9029AC0E713B178694107A7
:1058B000CBD5AC0702D578698007C6D5019911B15F
:1058C00078690107C1D51820494600FB08A0CDE939
:1058D000022301F02BF90446DDE902230028B4D0AD
:1058E0004A460021204601E04A460021FBF7B2FB70
:1058F000CCE70246002E95D198E700BFF47D000862
:10590000804F0020504F0020684F00200121FFF7FA
:1059100073BF0000F8B5144D01241827134E40F250
:10592000FF3200210120FBF795FB07FB04600134E7
:105930002A6955F80C1F01F0E5F8062CF5D137253A
:105940004FF4C0542046FFF7E1FF014628B122463C
:105950000748BDE8F84001F0D5B8C4EBC404013DE8
:105960004FEAD404EED1F8BDF47D0008684F002062
:10597000504F002008B101F04BB970470244074B6B
:10598000D2B210B5904200D110BD441C00B253F801
:10599000200041F8040BE0B2F4E700BF504000588B
:1059A0000E4B30B51C6F240405D41C6F1C671C6F94
:1059B00044F400441C670A4C02442368D2B243F406
:1059C00080732360074B904200D130BD441C51F8D6
:1059D000045B00B243F82050E0B2F4E70044025800
:1059E000004802585040005807B5012201A9002084
:1059F000FFF7C4FF019803B05DF804FB13B504463C
:105A0000FFF7F2FFA04205D0012201A90020019476
:105A1000FFF7C6FF02B010BD0144BFF34F8F064B26
:105A2000884204D3BFF34F8FBFF36F8F7047C3F823
:105A30005C022030F4E700BF00ED00E0034B1A6881
:105A40001AB9034AD2F8D0241A607047F84F0020E0
:105A50000040025808B5FFF7F1FF024B1868C0F389
:105A6000806008BDF84F0020EFF3098305496833D3
:105A70004A6B22F001024A6383F30988002383F30F
:105A80001188704700EF00E0302080F3118862B683
:105A90000D4B0E4AD96821F4E0610904090C0A4350
:105AA0000B49DA60D3F8FC2042F08072C3F8FC2086
:105AB000084AC2F8B01F116841F0010111602022AC
:105AC000DA7783F82200704700ED00E00003FA0562
:105AD00055CEACC5001000E0302310B583F311881B
